:020000040800F2
:100000004004002001010008090100080B0100085C
:100010000D0100080F010008110100080000000098
:1000200000000000000000000000000013010008B4
:100030001501000800000000170100081901000860
:100040001B0100081B0100081B0100081B01000820
:100050001B0100081B0100081B0100086D010008BE
:10006000AD010008E50100082D0200081B01000891
:100070001B0100081B010008490100081B010008C2
:100080001B0100081B0100081B0100081B010008E0
:100090001B0100081B0100081B0100081B010008D0
:1000A0001B0100081B0100081B0100081B010008C0
:1000B0001B0100081B0100081B0100081B010008B0
:1000C0001B0100081B0100081B0100081B010008A0
:1000D0001B0100081B0100081B0100081B01000890
:1000E0001B0100081B0100081B010008DFF80CD0F1
:1000F00000F018F8004800472904000840040020D8
:100100000648804706480047FEE7FEE7FEE7FEE7B1
:10011000FEE7FEE7FEE7FEE7FEE7FEE785030008F1
:10012000ED000008064C074D06E0E06840F00103D2
:1001300094E8070098471034AC42F6D3FFF7DAFF93
:10014000B4050008D405000800B50648406840F42E
:100150008050044948600020034908807D2000F059
:1001600013F900BD000002401438014002200D497F
:1001700008600D48007810B105280CD105E00A4848
:100180000078401C0849087009E007480078401CC6
:100190000549087003E000200349087000BF00BF54
:1001A00070470000140401403C00002004200A496C
:1001B00008600A480078032808D1612008490871BE
:1001C00006480078401C0549087003E000200349F8
:1001D000087000BF00BF7047140401403C000020BD
:1001E0000000002008200D4908600D48007806280E
:1001F0000ED15F200B4908730B48406C40F00100A2
:100200000949486406480078401C0549087003E025
:1002100000200349087000BF00BF7047140401406C
:100220003C00002000000020000002401020164981
:10023000086016480078012804D002280BD0042852
:100240001CD111E074201249887110480078401CBC
:100250000E49087016E05F200D4908740B480078BD
:10026000401C0A4908700DE0094840780849887325
:1002700006480078401C0549087003E00020034947
:10028000087000BF00BF7047140401403C0000200C
:100290000000002000201349C86008611420486154
:1002A00000208861C8610846006840F001000860CD
:1002B000084640680C4908400A49486008460068FA
:1002C0000A490840074908600846006820F4802071
:1002D00008600846406820F4FE00486000208860FE
:1002E00070470000001002400000FFF8FFFFF6FE1C
:1002F00000B500230022FFF7CDFF1F48006840F43F
:1003000080301D490860002201E0501CC2B21A482A
:100310000068400C08B9C82AF7DB1848006840F0AC
:1003200032001649086014484068154908431249CC
:1003300048600846006840F080700860002201E0D4
:10034000501CC2B20C480068400E08B9C82AF7DB3E
:100350000948406840F002000749486007E0064845
:100360004068C0F38703501CC2B203F00303022BA2
:1003700001D0C82AF3DB00BD00100240002002407B
:1003800000041D007047000000BF0849098801F003
:1003900080010029F9D00549091D088000BF0349E3
:1003A000098801F080010029F9D070470038014028
:1003B00000280DDB00BF00BF00F01F0201219140AB
:1003C0004209920002F1E022C2F8001100BF00BF12
:1003D000704702E008C8121F08C1002AFAD170470E
:1003E0007047002001E001C1121F002AFBD17047B5
:1003F00010B5044603E04FF47A7000F006F8201EB2
:10040000A4F101018CB2F6D110BD014605E0002037
:1004100001E0421CD0B20928FBDB0A1EA1F1010356
:1004200099B2F4D170470000FFF762FF00205949EC
:1004300088610846806940F001008861084680694B
:1004400044F204010843534988610120486152483D
:10045000524908605248091D08601E204F490C315E
:100460000860504908604F490C31086000214E482F
:10047000C16001610720FFF79BFF0820FFF798FF8D
:100480000920FFF795FF0A20FFF792FF4148C06857
:1004900040F480403F49C8600846C06820F480406E
:1004A000C86040F271204149088042F20800091DED
:1004B00008805320FFF768FF4320FFF765FF5420B3
:1004C000FFF762FF4620FFF75FFF7B20FFF75CFF2F
:1004D000802036490C31088080053549086533484D
:1004E000001FC8641E20886440F2924048640E20B9
:1004F000FFF75EFF2B481030006840F002002949EA
:10050000103108600120FFF773FF264810300068A3
:1005100040F010002349103108600120FFF768FF08
:1005200020481030006840F010001E49103108606B
:100530000120FFF75DFF1B481030006840F0040009
:100540001849103108600120FFF752FF154810309C
:10055000006840F010001349103108600120FFF7D7
:1005600047FF10481030006840F002000D4910317C
:1005700008600120FFF73CFF0A481030006840F097
:1005800008000849103108600120FFF731FF00BF63
:10059000FEE7000000100240848848440008014043
:1005A000B4444444000401400000014008380140C4
:1005B00000000240D40500080000002040000000B8
:1005C000D2030008140600084000002000040000C8
:1005D000E2030008745F685F315F735F315F735FD0
:1005E0006E5F305F745F725F315F675F685F745F1B
:1005F000665F6C5F615F675F0000000000000000E5
:1006000000000000000000000000000000000000EA
:0406100000000000E6
:04000005080000ED02
:00000001FF
